:10031A003F065B4F666D7D077F6F777C395E79712B
:10032A000040761E7038375C733E783D6750376EF2
:10033A00BF86DBCFE6EDFD87FFEF46403031323333
:0E034A0034353637383901020408102040805F
:03050E00011500D4
:0504A0007E001204893A
:1004A5007580FFC2A5D2A6D2A7E58020E7FBC2A72B
:0104B5002224
:1003E1007E001203F17F387E001204897F057E00B2
:1003F100D3EF9400EE9400400F7DC77C01DCFEDD5D
:08040100FAEF1F70EB1E80E80A
:0104090022D0
:10048900C2A7C2A58F807F017E001203F1C2A6D246
:07049900A71203EDC2A72228
:1002D7007E001203037F2D7E001203037F307E0012
:1002E7001203037F307E001203037F2D7E0012036B
:0C02F700037F307E001203037F307E0086
:10030300C2A7D2A58F807F017E001203F1C2A6D2BD
:07031300A71203EDC2A722AF
:10040A007F0F1203E17F387E001204897F051203F1
:10041A00E17F0C1204A07F041204A07F011204A041
:07042A007F807E00020489BF
:1004700075C78275C5038FC48EC3C2AF75C65A7562
:09048000C6A500120003D2AF2250
:1004B60075C78275C5028FC48EC38DC275C65A753F
:0604C600C6A500020003C0
:1004560075C78275C5018FC48EC375C65A75C6A584
:090466000085C219120003AF1950
:01046F00226A
:08000300E4F5C7F5C5F5C622BE
:10000E00AE0AAF0B7C037DE812023A8F0D7F807E25
:10001E0000120489E50D90034693FF7E0012030340
:10002E00AE0AAF0B7C007D6412023A7C007D0A1290
:10003E00023A8D0EE50E93FF7E00120303AE0AAF59
:10004E000B7C007D0A12023A7C007D0A12023A8D68
:10005E000FE50F93FF7E00120303AE0AAF0B7C0079
:10006E007D0A12023A8D10E51093FF7E00120303F3
:10007E007F857E00120489E50875F00A842420F538
:10008E001190032693FF7E001203037F2E7E001233
:10009E000303E50875F00A8485F012E51290034615
:1000AE0093FF7E001203037F897E00120489AE0A3D
:1000BE00AF0B7C007D311202287C277D1012023A94
:1000CE00EF2420F51390032693FF7E001203037F87
:1000DE002E7E00120303AE0AAF0B7C007D3112029E
:1000EE00287C037DE812023A7C007D0A12023A8DCA
:0D00FE0014E51490034693FF7E00020303F7
:0E04F00000007F017ED87D23DDFEDEFCDFFAFA
:0104FE0022DB
:0E04FF0000007F097E687D8BDDFEDEFCDFFAEB
:01050D0022CB
:1004CC00438E805389F0758A9A758CA9C28DD28C13
:0304DC00D2A92280
:1004DF00E4FEEF25E0FF92C0D2C3C2C30EBE08F206
:0104EF0022EA
:1003B700E51590035093F4FF1204DF740D2515F82B
:1003C700E690031A93FF1204DFD2CCC2CC0515E5E1
:0A03D70015C394084003E4F5152255
:10028F0075BCEC00000000E5BCF430E409AFBD75AF
:10029F000A008F0B80F1E50BAE0A7802C333CE3321
:1002AF00CED8F9FFE5BE5403FDEEF50AEF4DF50B81
:1002BF0012000EAE0AAF0B7C007D311202287C03B8
:0802CF007DE812023A8F0C22B7
:10038A0020B3141204F00508E508C394324003E4CC
:10039A00F5081204FFD2D520B2121204F0AF0815E4
:0D03AA0008EF70037508321204FFD2D5224F
:03000B00020431BB
:10043100C0E0C083C082C0D075D000C000C006C07B
:10044100071203B7D200D007D006D000D0D0D08297
:05045100D083D0E03271
:100358007FC07E001204897F397E001203037F412B
:100368001202D77F807E001204897F321202F37F47
:10037800301202D77F8D7E001204897F307E000202
:0203880003036D
:10010B00E4F516F517F518F594F593F596F59512A4
:10011B0004CCD2AFD2A9FF7EE61204568F08759D90
:10012B001075BC8100000000C2D512040A3000FD1E
:10013B00C2000516E516C394054009E4F516120234
:10014B008F12038AE50CD395084004C2C68002D2F5
:10015B00C630D5360518E51870020517C394DCE5D3
:10016B0017940540C8E4F517F518FF7EE6120470E6
:10017B00AD087F007EE61204B6E4FCB2C71204FFA2
:10018B000CBC05F7D2C7C2D580A3E4F517F51880D0
:01019B009CC7
:0300000002019C5E
:0C019C00787FE4F6D8FD7581200201E3B5
:10022800EF8DF0A4A8F0CF8CF0A428CE8DF0A42EEA
:02023800FE22A4
:10023A00BC000BBE0029EF8DF084FFADF022E4CCA8
:10024A00F875F008EF2FFFEE33FEEC33FCEE9DEC71
:10025A00984005FCEE9DFE0FD5F0E9E4CEFD22EDB7
:10026A00F8F5F0EE8420D21CFEADF075F008EF2F01
:10027A00FFED33FD4007985006D5F0F222C398FDF2
:05028A000FD5F0EA228F
:1001A80002010BE493A3F8E493A34003F68001F261
:1001B80008DFF48029E493A3F85407240CC8C33358
:1001C800C4540F4420C8834004F456800146F6DF27
:1001D800E4800B010204081020408090050EE47EA4
:1001E800019360BCA3FF543F30E509541FFEE4931C
:1001F800A360010ECF54C025E060A840B8E493A3E3
:10020800FAE493A3F8E493A3C8C582C8CAC583CA0D
:10021800F0A3C8C582C8CAC583CADFE9DEE780BEC5
:0105110000E9
:00000001FF
