:10014C003F065B4F666D7D077F6F777C395E7971FB
:10015C000040761E7038375C733E783D6750376EC2
:10016C00BF86DBCFE6EDFD87FFEF464001020408BA
:04017C00102040808F
:07029C00011500020B01F443
:07028600C29112028DD2901B
:04028D007F03DFFE0E
:01029100224A
:10025700D290D29112028DC29112028DC2900202E7
:010267008D09
:0D027900120286D29112028DC29002028DF7
:08000300120286C29002028D78
:0A029200D291120288C29002028D80
:08022E001202577FA212021117
:0E023600D291120288A29192D5C29002028D3E
:1001D1007E08E4FDD291D29012028DED25E0FD3032
:0F01E10091010D12028DC29012028DDEE9AF0561
:0101F00022EC
:02021100AE0736
:100213007D08EE30E704D2918002C291EE25E0FE24
:0A022300120288C29012028DDDE87D
:01022D0022AE
:1001AA007C0312022E20D51C7F0212021112023683
:1001BA0020D51174072CF8E6FF120211120236201C
:0701CA00D502DCEF0202790F
:10009A0012022E20D5317F0212021112023620D509
:1000AA00261202577FA312021112023620D5181205
:1000BA0001D18F081200031201D18F091200031215
:1000CA0001D18F0A120292120279E508540FF5142F
:1000DA00E508547FC4540FF51375122BE509540F24
:1000EA00F511E509547FC4540FF510750F2BE50A75
:0E00FA00540FF50EE50A543FC4540FF50D22C5
:10024400438E805389F0758A9A758CA9C28DD28C9D
:03025400D2A9220A
:10026800E4FEEF25E0FF92C0D2C3C2C30EBE08F27F
:010278002263
:10018000E51590017893F4FF120268740D2515F8B7
:10019000E690014C93FF120268D2CCC2CC0515E563
:0A01A00015C394084003E4F515228E
:03000B00020108E7
:10010800C0E0C083C082C0D075D000C000C006C0A7
:1001180007120180E50C150C7002150B14450B70C5
:100128000A750B01750CF4D200B2C6E50C64FA45E9
:100138000B7002B2C6D007D006D000D0D0D082D083
:0401480083D0E0324E
:1001F100E4F594F593120244D2AFD2A9750812F531
:1002010009F50A1201AA3000FDC20012009A80F617
:0300000002000EED
:0C000E00787FE4F6D8FD758120020055D3
:10001A000201F1E493A3F8E493A34003F68001F20A
:10002A0008DFF48029E493A3F85407240CC8C333E7
:10003A00C4540F4420C8834004F456800146F6DFB6
:10004A00E4800B010204081020408090029CE47EA8
:10005A00019360BCA3FF543F30E509541FFEE493AB
:10006A00A360010ECF54C025E060A840B8E493A372
:10007A00FAE493A3F8E493A3C8C582C8CAC583CA9D
:10008A00F0A3C8C582C8CAC583CADFE9DEE780BE55
:0102A300005A
:00000001FF
