:1001C4003F065B4F666D7D077F6F777C395E797183
:1001D4000040761E7038375C733E783D6750376E4A
:1001E400BF86DBCFE6EDFD87FFEF46010204081072
:0301F40020408028
:0E030C0000007F017ED87D23DDFEDEFCDFFADF
:01031A0022C0
:1002EA00538E7F5389F0758A66758CFCC28DD28CC9
:0102FA0022E1
:1000FD00E50AC3940A400AE50A75F00A84F50E80F4
:10010D0003750E10E50A75F00A8485F00F75101150
:10011D00E50975F00A84F511E50975F00A8485F095
:10012D0012751311E50875F00A84F514E50875F0DC
:06013D000A8485F0152282
:07032800D29112032FD290C5
:04032F007F0BDFFE63
:0103330022A7
:0D031B00120328C29112032FC29002032F7B
:0A034000C29112032AD29102032F8A
:0A034A00C29112032AC29002032F91
:08000300120328C29002032F32
:0A02D400AC0712031B7FA212029C6C
:0C02DE00120328A29192D5C29002032FB7
:02029C00AE07AB
:10029E007D08EE30E704D2918002C291EE25E0FE99
:0A02AE0012032AC29012032FDDE8AC
:0102B8002223
:1002B9007D08D291D29012032FEE25E0FE309101F4
:0A02C9000EC29012032FDDECAF0609
:0102D3002208
:1001F7001202D420D522AF0412029C1202DE20D5AF
:1002070017120222FF12029C740129F9E43AFA122A
:0B02170002DE20D503D52AE9020340D7
:100185001202D420D536AF0412029C1202DE20D50D
:100195002B12031B7FA312029C1202DE20D51D1217
:1001A50002B9EF12023B740129F9E43AFAE52A642F
:0F01B50001600312034AD52AE612000302034039
:100143007B007A007923752A037F02120185E52358
:10015300C4540775F00AA4FFE523540F2FF508E5EF
:1001630024C4540775F00AA4FFE524540F2FF5099E
:10017300E525C4540375F00AA4FFE525540F2FF5B4
:010183000A71
:010184002258
:1000B000E50875F00A84C454F0FFE50875F00A8479
:1000C000E5F02FF523E50975F00A84C454F0FFE547
:1000D0000975F00A84E5F02FF524E50A75F00A8425
:1000E000C454F0FFE50A75F00A84E5F02FF5257B8E
:0D00F000007A007923752A037F020201F7D0
:10000E00C20075800FE4F50DD2C6F594F593120279
:10001E00EAD2AFD2A9120143C2D5E508C3943C403F
:10002E0002D2D5E509C3943C4002D2D5E50AC39469
:10003E003C4002D2D530D50BE4F508F509750A0C13
:10004E001200B01200FDE4FF740E2FF8A6070FBFCA
:10005E0008F630003AC2000522E522AE21700205F4
:10006E002114D394F4EE94014007E4F521F522B265
:10007E00C60517E517AE167002051614D394E8EEF2
:10008E009403400BE4F516F5171201431200FD2000
:10009E0080C012030C208002B2C73080FD12030C08
:0200AE0080B020
:1002FB00E4FEEF25E0FF92C0D2C3C2C30EBE08F2EC
:01030B0022CF
:10024D00E50D9001EF93F4FF1202FB740E250DF8EE
:10025D00E69001C493FF1202FBD2CCC2CC050DE592
:0A026D000DC394084003E4F50D22D0
:03000B0002027777
:10027700C0E0C083C082C0D075D000C000C006C037
:100287000712024DD200D007D006D000D0D0D082BE
:05029700D083D0E0322D
:03000000020334C4
:0C033400787FE4F6D8FD75812A02000EE7
:10022200BB010689828A83E0225002E722BBFE02DA
:09023200E32289828A83E493220D
:10023B00BB010689828A83F0225002F722BBFE01A2
:02024B00F3229C
:00000001FF
