:100179003F065B4F666D7D077F6F777C395E7971CE
:100189000040761E7038375C733E783D6750376E95
:10019900BF86DBCFE6EDFD87FFEF4640010204088D
:0401A9001020408062
:03000300011300E6
:10009A00AE09AF0A7C037DE81201248F0BAE09AFCB
:1000AA000A7C007D641201247C007D0A1201248DE1
:1000BA000CAE09AF0A7C007D0A1201247C007D0A7D
:1000CA001201248D0DAE09AF0A7C007D0A120124AB
:1000DA008D0E750F10751010AE09AF0A7C007D31B8
:1000EA00120112AA06AB077C277D10120124EF2405
:1000FA0020F5117C037DE8AF03AE021201247C00D7
:08010A007D0A1201248D12226E
:10025900438E805389F0758A9A758CA9C28DD28C88
:03026900D2A922F5
:10026C00E4FEEF25E0FF92C0D2C3C2C30EBE08F27B
:01027C00225F
:1001E000E5139001A593F4FF12026C740B2513F82C
:1001F000E690017993FF12026CD2CCC2CC0513E5D4
:0A02000013C394084003E4F5132231
:1001AD0075BCEC00000000E5BCF430E409AFBD7592
:1001BD0009008F0A80F1E50AAE097802C333CE3308
:1001CD00CED8F9FFE5BE5403FDEEF509EF4DF50A66
:0301DD0002009A83
:03000B00020234BA
:10023400C0E0C083C082C0D075D000C000C006C07A
:10024400071201E0D200D007D006D000D0D0D0826F
:05025400D083D0E03270
:10020A00E4F9F594F593120259D2AFD2A9759D106B
:10021A0075BC81000000003000FDC20009E9C394EA
:0A022A000540F4E4F91201AD80ED87
:0300000002000EED
:0C000E00787FE4F6D8FD758120020055D3
:10011200EF8DF0A4A8F0CF8CF0A428CE8DF0A42E01
:02012200FE22BB
:10012400BC000BBE0029EF8DF084FFADF022E4CCBF
:10013400F875F008EF2FFFEE33FEEC33FCEE9DEC88
:10014400984005FCEE9DFE0FD5F0E9E4CEFD22EDCE
:10015400F8F5F0EE8420D21CFEADF075F008EF2F18
:10016400FFED33FD4007985006D5F0F222C398FD09
:050174000FD5F0EA22A6
:10001A0002020AE493A3F8E493A34003F68001F2F0
:10002A0008DFF48029E493A3F85407240CC8C333E7
:10003A00C4540F4420C8834004F456800146F6DFB6
:10004A00E4800B0102040810204080900003E47E43
:10005A00019360BCA3FF543F30E509541FFEE493AB
:10006A00A360010ECF54C025E060A840B8E493A372
:10007A00FAE493A3F8E493A3C8C582C8CAC583CA9D
:10008A00F0A3C8C582C8CAC583CADFE9DEE780BE55
:0100060000F9
:00000001FF
