:10066700303132333435363738394C696E652020AE
:100677006465746563746F72706F776572206279F1
:100687002032506C656173652070726573732074D6
:10069700686520627574746F6E20746F207374615F
:0D06A700727420646574656374696F6E0081
:0507B0007E0012079914
:1007B5007580FFC2A5D2A6D2A7E58020E7FBC2A718
:0107C5002211
:100740007E001207507F387E001207997F057E00D9
:10075000D3EF9400EE9400400F7DC77C01DCFEDDFA
:08076000FAEF1F70EB1E80E8A8
:01076800226E
:090790007F011207997F807E00B1
:10079900C2A7C2A58F807F017E00120750C2A6D2D0
:0707A900A712074CC2A722B2
:1006B40074412BF582E43400F583E075F00A8490EC
:1006C400066793FF7E001206E574412BF582E4343D
:1006D40000F583E075F00A84E5F090066793FF7EE9
:0106E4000015
:1006E500C2A7D2A58F807F017E00120750C2A6D275
:0706F500A712074CC2A72267
:100769007F0F1207407F387E001207997F05120715
:10077900407F0C1207B07F041207B07F011207B047
:070789007F807E000207994A
:1004720075BCEC00000000E5BCF430E409AFBD75CA
:1004820009008F0A80F1E50AAE097802C333CE3340
:10049200CED8F9FFE5BE5403FDEEF509EF4DF50A9E
:1004A2007FC07E00120799AE09AF0A7C037DE81275
:1004B200019F74672FF58274063EF583E41206E10C
:1004C200AE09AF0A7C007D6412019F7C007D0A1296
:1004D200019F74672DF58274063CF583E41206E1F0
:1004E200AE09AF0A7C007D0A12019F7C007D0A12D0
:1004F200019F74672DF58274063CF583E41206E1D0
:10050200AE09AF0A7C007D0A12019F74672DF58245
:0D05120074063CF583E493FF7E000206E5CD
:0E07D90000007F097E687D8BDDFEDEFCDFFA0E
:0107E70022EF
:0E07E80000007F017ED87D23DDFEDEFCDFFAFF
:0107F60022E0
:1002C20030D52AC2D57E001207907F527E001206D8
:1002D200E57F3A7E001206E57FC07E001207997F15
:1002E2004A7E001206E57F3A7E001206E5E50C24FE
:1002F20005FFE433FEC3EF950D7480F86E98502A23
:100302007F827E00120799AB0CE50C2405FFE433D3
:10031200FEEBC39FEE6480F8748098500D1206B411
:100322007F2F7E001206E50B80DFE50C2405FFE43B
:1003320033FEC3EF950E7480F86E9850447FC27EF0
:1003420000120799AB0CE50C2405FFE433FEEBC366
:100352009FEE6480F8748098502774302BF582E405
:100362003400F583E075F00A841206DE74302BF552
:1003720082E434001206D57F2F7E001206E50B8040
:10038200C5E50DD3950E4017E50C2405FFE433FEB9
:10039200C3EF950D7480F86E98401DE50D8015E54C
:1003A2000C2405FFE433FEC3EF950E7480F86E98BB
:0803B2004006E50E24FBF50CEA
:0103BA002220
:10051F00E50CC39400402A7F827E00120799AB0C32
:10052F00E50C2405FFE433FEEBC39FEE6480F87403
:10053F008098500D1206B47F2F7E001206E50B80B7
:10054F00DFE50CC3940040447FC27E00120799ABD5
:10055F000CE50C2405FFE433FEEBC39FEE6480F83B
:10056F00748098502774302BF582E43400F583E0C3
:10057F0075F00A841206DE74302BF582E434001213
:0C058F0006D57F2F7E001206E50B80C50C
:01059B00223D
:1003BB00E4FBFE1207907F527E001206E57F3A7E29
:1003CB00001206E5E4FA74002AF582E43400F583A2
:1003DB00E064017031E50DC394055019EA75F00A1C
:1003EB00841206DEEA75F00A84E5F01206E17F2F2F
:1003FB007E001206E5AF030B74412FF582E4340047
:10040B00F583EAF0050D0ABA30BC7FC07E001207F7
:10041B00997F4A7E001206E57F3A7E001206E5E4DC
:10042B00FBFA74002AF582E43400F583E064027071
:10043B0031E50EC394055019EA75F00A841206DEF5
:10044B00EA75F00A84E5F01206E17F2F7E001206B2
:10045B00E5AF030B74302FF582E43400F583EAF03B
:06046B00050E0ABA30BCC8
:010471002268
:10061400C3E50A9402E50994005006050BD2038051
:1006240002C2031207957F477E001206E5E50B75AB
:10063400F00A841206DEE50B75F00A84E5F0120672
:10064400E17F847E001207997F527E001206E57FC7
:10065400887E001207997F4A7E001206E5A203E411
:0206640033FF62
:010666002271
:10059C00D203D204E4F508F58DF58BC28F2092FDC1
:1005AC0030922AD28E2092FD3092FDC28EAF8DEF0A
:1005BC00FEAD8B7C00E42DFFEC3EAB07FAE4F9F8C2
:1005CC007F207EA17D071206FC8F08800D751536E5
:1005DC007FC7DFFE2092CCD515F87FC57E001207B1
:1005EC0099E50875F064841206D8E50875F00A845C
:1005FC0075F00A84E5F01206E1E50875F00A84E569
:08060C00F093FF7E000206E5F9
:1007C600438E805389F0758A9A758CA9C28DD28C16
:0307D600D2A92283
:0B080300538909E4F58BF58DC28F22AC
:03000B00020003ED
:03000300D20532F1
:10000E00D201D202E4F50FF510F511F512C293C22A
:10001E0005D291D2D5D292F594F593F596F5951227
:10002E0007697F817E00120799E4F50FE50FB40E84
:10003E00077FC57E00120799E50F9006711206E143
:10004E00050FE50FC3941840E31207C61208037597
:10005E009D1075BC81E4F50FD200A200B0B2500F16
:10006E007F017E00120799D2AFD2A9D2ABC2003067
:10007E0005E8C205E50BC394314003020171051476
:10008E00E51494FA400CE4F514120614EF60031212
:10009E0007D9050FE50FC39419400DE4F50FD29360
:1000AE00120472C29312059C0510E510C3941940F8
:1000BE00A9E50BD395134002D201A201E433FFE56B
:1000CE0008D3940F40047E0180027E00EE5F700321
:1000DE00020160850B13C20174FF250BF582E43417
:1000EE00FFF5837401F07F857E001207990511E5F7
:1000FE001175F00A841206DEE51175F00A84E5F03A
:10010E001206E1E508D39423404874FF250BF582CF
:10011E00E434FFF5837402F07F897E00120799059F
:10012E0012E51275F00A841206DEE51275F00A84E5
:10013E00E5F01206E17F857E001207991511E51193
:10014E0075F00A841206E1E51175F00A84E5F012E5
:10015E0006E1E508D3940F4005C291020068D291E2
:10016E00020068300205C2021203BB20B20B050C5E
:10017E001207E81202C21207D930B303020068E573
:10018E000C6002150C1207E812051F1207D90200A7
:01019E0068F8
:030000000207F7FD
:0C07F700787FE4F6D8FD75812002000E2A
:10019F00BC000BBE0029EF8DF084FFADF022E4CC44
:1001AF00F875F008EF2FFFEE33FEEC33FCEE9DEC0D
:1001BF00984005FCEE9DFE0FD5F0E9E4CEFD22ED53
:1001CF00F8F5F0EE8420D21CFEADF075F008EF2F9D
:1001DF00FFED33FD4007985006D5F0F222C398FD8E
:0501EF000FD5F0EA222B
:1006FC00C2D5E830E70FB2D5E4C39BFBE49AFAE429
:10070C0099F9E498F8EC30E717B2D51207321202D7
:10071C0030E4C39BFBE49AFAE499F9E498F880037B
:10072C0012023030D50DE4C39FFFE49EFEE49DFD24
:04073C00E49CFC221B
:1001F40075F008758200EF2FFFEE33FECD33CDCCC2
:1002040033CCC58233C5829BED9AEC99E582984044
:100214000CF582EE9BFEED9AFDEC99FC0FD5F0D621
:10022400E4CEFBE4CDFAE4CCF9A88222B800C1B94B
:100234000059BA002DEC8BF084CFCECDFCE5F0CB89
:10024400F97818EF2FFFEE33FEED33FDEC33FCEBC2
:1002540033FB10D703994004EB99FB0FD8E5E4F97D
:10026400FA227818EF2FFFEE33FEED33FDEC33FC6A
:10027400C933C910D7059BE99A4007EC9BFCE99A5E
:10028400F90FD8E0E4C9FAE4CCFB2275F010EF2FA3
:10029400FFEE33FEED33FDCC33CCC833C810D707A3
:1002A4009BEC9AE899400AED9BFDEC9AFCE899F8DE
:0E02B4000FD5F0DAE4CDFBE4CCFAE4C8F92271
:00000001FF
