:100258003F065B4F666D7D077F6F777C395E7971EE
:100268000040761E7038375C733E783D6750376EB5
:10027800BF86DBCFE6EDFD87FFEF464001020408AD
:040288001020408082
:0303930001150051
:1003220075C78275C5038FC48EC3C2AF75C65A75B1
:09033200C6A500120003D2AF229F
:10033B0075C78275C5028FC48EC38DC275C65A75BB
:06034B00C6A5000200033C
:1003080075C78275C5018FC48EC375C65A75C6A5D3
:090318000085C219120003AF199F
:0103210022B9
:08000300E4F5C7F5C5F5C622BE
:10012400AE0AAF0B7C037DE81201BB8F0DAE0AAFA4
:100134000B7C007D641201BB7C007D0A1201BB8D27
:100144000EAE0AAF0B7C007D0A1201BB7C007D0A57
:100154001201BB8D0FAE0AAF0B7C007D0A1201BBEE
:100164008D10E50875F00A842420F511E50875F072
:100174000A8485F012AE0AAF0B7C007D311201A90E
:10018400AA06AB077C277D101201BBEF2420F513D0
:100194007C037DE8AF03AE021201BB7C007D0A1232
:0501A40001BB8D1422D7
:0E03750000007F017ED87D23DDFEDEFCDFFA76
:010383002257
:0E03840000007F097E687D8BDDFEDEFCDFFA67
:010392002248
:10035100438E805389F0758A9A758CA9C28DD28C8F
:03036100D2A922FC
:10036400E4FEEF25E0FF92C0D2C3C2C30EBE08F282
:010374002266
:1002B900E51590028493F4FF120364740D2515F873
:1002C900E690025893FF120364D2CCC2CC0515E51F
:0A02D90015C394084003E4F5152254
:1002100075BCEC00000000E5BCF430E409AFBD752E
:100220000A008F0B80F1E50BAE0A7802C333CE33A0
:10023000CED8F9FFE5BE5403FDEEF50AEF4DF50B00
:10024000120124AE0AAF0B7C007D311201A97C03A0
:080250007DE81201BB8F0C22B6
:10028C0020B3141203750508E508C394324003E447
:10029C00F508120384D2D520B212120375AF0815DB
:0D02AC0008EF7003750832120384D2D522CA
:03000B000202E30B
:1002E300C0E0C083C082C0D075D000C000C006C0CB
:1002F300071202B9D200D007D006D000D0D0D082E6
:05030300D083D0E032C0
:10009A00E4F516F517F518F594F593120351D2AF56
:1000AA00D2A9FF7EE61203088F08759D1075BC81E0
:1000BA0000000000C2D53000FDC2000516E516C3D7
:1000CA0094054009E4F51612021012028CE50CD3CD
:1000DA0095084004C2C68002D2C630D5360518E556
:1000EA001870020517C394DCE517940540C8E4F5B7
:1000FA0017F518FF7EE6120322AD087F007EE6128E
:10010A00033BE4FCB2C71203840CBC05F7D2C7C296
:0A011A00D580A3E4F517F518809CCA
:0300000002000EED
:0C000E00787FE4F6D8FD758120020055D3
:1001A900EF8DF0A4A8F0CF8CF0A428CE8DF0A42E6A
:0201B900FE2224
:1001BB00BC000BBE0029EF8DF084FFADF022E4CC28
:1001CB00F875F008EF2FFFEE33FEEC33FCEE9DECF1
:1001DB00984005FCEE9DFE0FD5F0E9E4CEFD22ED37
:1001EB00F8F5F0EE8420D21CFEADF075F008EF2F81
:1001FB00FFED33FD4007985006D5F0F222C398FD72
:05020B000FD5F0EA220E
:10001A0002009AE493A3F8E493A34003F68001F262
:10002A0008DFF48029E493A3F85407240CC8C333E7
:10003A00C4540F4420C8834004F456800146F6DFB6
:10004A00E4800B0102040810204080900393E47EB0
:10005A00019360BCA3FF543F30E509541FFEE493AB
:10006A00A360010ECF54C025E060A840B8E493A372
:10007A00FAE493A3F8E493A3C8C582C8CAC583CA9D
:10008A00F0A3C8C582C8CAC583CADFE9DEE780BE55
:010396000066
:00000001FF
