:1000EF003F065B4F666D7D077F6F777C395E797159
:1000FF000040761E7038375C733E783D6750376E20
:10010F00BF86DBCFE6EDFD87FFEF46403031323360
:10011F00343536373839706F77657220627920320F
:09012F00000102040810204080C8
:03000300011500E4
:0501E7007E001201B9C9
:1001EC007580FFC2A5D2A6D2A7E58020E7FBC2A7E7
:0101FC0022E0
:100169007E001201797F387E001201B97F057E0079
:10017900D3EF9400EE9400400F7DC77C01DCFEDDD7
:08018900FAEF1F70EB1E80E885
:01019100224B
:1001B900C2A7C2A58F807F017E00120179C2A6D293
:0701C900A7120175C2A72275
:1001D000C2A7D2A58F807F017E00120179C2A6D26C
:0701E000A7120175C2A7225E
:100192007F0F1201697F387E001201B97F051201BB
:1001A200697F0C1201E77F041201E77F011201E768
:0701B2007F807E000201B90D
:1001380075BCEC00000000E5BCF430E409AFBD7507
:100148000A008F0B80F1E50BAE0A7802C333CE3379
:10015800CED8F9FFE5BE5403FDEEF50AEF4DF50BD9
:010168002274
:01000A0022D3
:0E02100000007F097E687D8BDDFEDEFCDFFADC
:01021E0022BD
:1001FD00438E805389F0758A9A758CA9C28DD28CE5
:03020D00D2A92251
:03000B00020007E9
:03000700D20132F1
:10009A00E4F516FBF517F518D291C2D5F594F59348
:1000AA00F596F5951201FDD2AFD2A91201927FC041
:1000BA007E001201B9759D1075BC81EB90012593E4
:1000CA00FF7E001201D00BBB0AF1120210C291305E
:1000DA0001FD30A004C2918002D2911201381200AF
:0500EA000AC20180EADA
:0300000002000EED
:0C000E00787FE4F6D8FD758120020055D3
:10001A0002009AE493A3F8E493A34003F68001F262
:10002A0008DFF48029E493A3F85407240CC8C333E7
:10003A00C4540F4420C8834004F456800146F6DFB6
:10004A00E4800B0102040810204080900003E47E43
:10005A00019360BCA3FF543F30E509541FFEE493AB
:10006A00A360010ECF54C025E060A840B8E493A372
:10007A00FAE493A3F8E493A3C8C582C8CAC583CA9D
:10008A00F0A3C8C582C8CAC583CADFE9DEE780BE55
:0100060000F9
:00000001FF
