:10029C003F065B4F666D7D077F6F777C395E7971AA
:1002AC000040761E7038375C733E783D6750376E71
:1002BC00BF86DBCFE6EDFD87FFEF46400102040869
:0402CC00102040803E
:0A03C100011A00011101020E01F4FF
:1001D700E510C3940A400AE51075F00A84F5128009
:1001E70003E4F512E51075F00A8485F01375141110
:1001F700E50975F00A84F515E50975F00A8485F0B7
:1002070016751711E50875F00A84F518E50875F0F5
:060217000A8485F01922A3
:0703B500C2911203BCD290BB
:0403BC007F03DFFEDE
:0103C000221A
:0E03990000007F017ED87D23DDFEDEFCDFFA52
:0103A7002233
:10037700D290D2911203BCC2911203BCC290020365
:01038700BCB9
:0D03A8001203B5D2911203BCC2900203BC37
:080003001203B5C2900203BC18
:0A03CC00D2911203B7C2900203BCE5
:08034E001203777FA212031ACB
:0E035600D2911203B7A29192D5C2900203BCBD
:1002FA007E08E4FDD291D2901203BCED25E0FD30D8
:0F030A0091010D1203BCC2901203BCDEE9AF05D6
:0103190022C1
:02031A00AE072C
:10031C007D08EE30E704D2918002C291EE25E0FE1A
:0A032C001203B7C2901203BCDDE813
:0103360022A4
:100171007C0312034E20D55B7F0212031A12035631
:1001810020D550E50875F00A84C454F0FFE50875E0
:10019100F00A84E5F02FF50DE50975F00A84C454E1
:1001A100F0FFE50975F00A84E5F02FF50CE510750F
:1001B100F00A84C454F0FFE51075F00A84E5F02FCD
:1001C100F50B740A2CF8E6FF12031A12035620D518
:0601D10002DCEF0203A8AE
:10009A0012034E20D5317F0212031A12035620D5BD
:1000AA00261203777FA312031A12035620D51812B9
:1000BA0002FA8F0B1200031202FA8F0C12000312BB
:1000CA0002FA8F0D1203CC1203A8E50BC45407756C
:1000DA00F00AA4FFE50B540F2FF508E50CC45407EA
:1000EA0075F00AA4FFE50C540F2FF509E50DC45469
:0E00FA000375F00AA4FFE50D540F2FF5102238
:10036400438E805389F0758A9A758CA9C28DD28C7C
:03037400D2A922E9
:10038800E4FEEF25E0FF92C0D2C3C2C30EBE08F25E
:010398002242
:1002D000E51A9002C893F4FF1203887412251AF8E5
:1002E000E690029C93FF120388D2CCC2CC051AE59B
:0A02F0001AC394084003E4F51A2233
:03000B0002021DD1
:10021D00C0E0C083C082C0D075D000C000C006C091
:10022D00071202D0D200E50F150F7002150E1445FE
:10023D000E700A750E01750FF4D201B2C6E50F648A
:10024D00FA450E7002B2C6D007D006D000D0D0D07D
:06025D0082D083D0E032E4
:10033700E580640F600312039985800A20B30312D6
:070347000399A2B392022208
:1001080020D55EE50A640F604BE4F511E50A24F991
:10011800603324FC602124FE60111470320510E560
:1001280010C394184029E4F5108024AF101510EF7F
:10013800701D75101780180509E509C3943C400F18
:10014800E4F509800AAF091509EF700375093BD278
:10015800D51201D7200211E4F508120171751101B9
:0901680022E50AB40F02C2D522FF
:10026300E4F594F59375800F120364D2AFD2A930ED
:1002730000FDC200A201E43355116008C20112005F
:100283009A1201D7AF1B051BEFC394194006E4F57F
:090293001B12033712010880D68A
:0300000002000EED
:0C000E00787FE4F6D8FD758120020055D3
:10001A00020263E493A3F8E493A34003F68001F297
:10002A0008DFF48029E493A3F85407240CC8C333E7
:10003A00C4540F4420C8834004F456800146F6DFB6
:10004A00E4800B01020408102040809003C1E47E82
:10005A00019360BCA3FF543F30E509541FFEE493AB
:10006A00A360010ECF54C025E060A840B8E493A372
:10007A00FAE493A3F8E493A3C8C582C8CAC583CA9D
:10008A00F0A3C8C582C8CAC583CADFE9DEE780BE55
:0103CB000031
:00000001FF
