:100056003F065B4F666D7D077F6F777C395E7971F2
:100066000040761E7038375C733E783D6750376EB9
:10007600BF86DBCFE6EDFD87FFEF460102040810E1
:0300860020408097
:0E00E900AF100510EFC3940F4003E4F5102292
:0C00F700E4FF74082FF8A6100FBF08F6F5
:0101030022D9
:10000E00E4F510F511438E805389FB5389FC758CF2
:10001E00A9758A9AD2A9D28CD2AFFF74082FF8A6EE
:10002E00070FBF08F63000FDC2000513E51370027E
:10003E000512C394F4E512940140EAE4F512F513A7
:08004E001200F71200E980DD49
:1000D800E4FEEF25E0FF92C0D2C3C2C30EBE08F211
:0100E80022F5
:10008900E51190008193F4FF1200D874082511F846
:10009900E690005693FF1200D8D2CCC2CC0511E5E8
:0A00A90011C394084003E4F511228E
:03000B000200B33D
:1000B300C0E0C083C082C0D075D000C000C006C0FD
:1000C30007120089D200D007D006D000D0D0D0824A
:0500D300D083D0E032F3
:03000000020104F6
:0C010400787FE4F6D8FD75812002000E23
:00000001FF
